:020000040800F2
:10000000F81400202D0200081D720008511B000882
:10001000097200085D0B00080F890008000000004D
:1000200000000000000000000000000085770008CC
:10003000E910000800000000157600089978000813
:10004000470200084702000847020008470200086C
:10005000470200084702000847020008470200085C
:10006000470200084702000847020008470200084C
:10007000470200084702000847020008470200083C
:10008000470200084702000847020008470200082C
:10009000470200084702000847020008470200081C
:1000A000470200084702000847020008470200080C
:1000B0004702000847020008FD78000847020008D0
:1000C00047020008470200084702000847020008EC
:1000D00047020008ED8600084702000847020008B2
:1000E00047020008470200084702000847020008CC
:1000F00047020008470200084702000847020008BC
:1001000047020008470200084702000847020008AB
:10011000470200084702000847020008470200089B
:10012000470200084702000847020008470200088B
:1001300000F002F800F06BF80AA090E8000C82448E
:100140008344AAF10107DA4501D100F060F8AFF26B
:10015000090EBAE80F0013F0010F18BFFB1A43F0A5
:100160000103184794C50000B4C500000A444FF0CD
:10017000000C10F8013B13F0070408BF10F8014B06
:100180001D1108BF10F8015B641E05D010F8016B4B
:10019000641E01F8016BF9D113F0080F1EBF10F8AF
:1001A000014BAD1C0C1B09D16D1E58BF01F801CBD2
:1001B000FAD505E014F8016B01F8016B6D1EF9D555
:1001C0009142D6D37047000000230024002500266A
:1001D000103A28BF78C1FBD8520728BF30C148BFAA
:1001E0000B607047642900F09F80752900F09C80A7
:1001F000782900F0D580632900F07482732900F01B
:100200007982002070471FB51FBD10B510BD00F0EA
:10021000ABFA1146FFF7F7FF08F002FC00F0C9FA4D
:1002200003B4FFF7F2FF03BC08F07AFB09488047EC
:1002300009480047FEE7FEE7FEE7FEE7FEE7FEE7C8
:10024000FEE7FEE7FEE7FEE704480549054A064BE0
:10025000704700009D78000831010008F80E00206A
:10026000F8140020F8100020F8100020704700005B
:100270000FB4044910B503AA029800F03FFA10BC6D
:100280005DF814FB6000002070B5044685690068C5
:10029000C10601D5302600E02026C00707D070BD7A
:1002A000D4E9012130469047206A401C20626D1E2F
:1002B000F6D570BD70B5044685690078C00707D1D2
:1002C00070BDD4E9012120209047206A401C2062A3
:1002D0006D1EF6D570BD70B50C460546012A05D0D9
:1002E0002878800600D5EA69002302E0012305E0B2
:1002F0005B1C934202D2E05C0028F9D1A869E618A1
:10030000C01AA861286A184428622846FFF7BCFF73
:1003100004E0D5E9012114F8010B9047B442F8D369
:100320002846FFF7C7FF70BD2DE9F04106460024BF
:1003300010687529314616A510D0AFF3008000284B
:1003400002DA404213A507E031688A0701D512A5F9
:1003500002E0490704D511A5012401E0AFF30080B4
:1003600000210A2206F1240709E0B0FBF2FCB0FBF1
:10037000F2F302FB1C00303078541846491C002868
:10038000F3D123462A463046BDE8F04100F047B994
:10039000000000002D0000002B00000020000000E5
:1003A00070B504460D4621461068AFF300802188E1
:1003B000090502D50F4A7A4402E00E4A7A440E3209
:1003C000002104F1240305E000F00F060009965D0A
:1003D0005E54491C0028F7D120780023000704D57B
:1003E000702D02D009B1022311322046BDE87040C1
:1003F00000F015B9D2BF00002DE9F05F8946044630
:100400004FF0000ADFF874B1FB44C0F820A020468A
:10041000E1688847002874D0252806D0D4E9012156
:100420009047206A401C2062F1E700265F46204684
:10043000E16888472028054607DB312D05D2781969
:1004400010F8200C08B10643F1E7B00701D526F0FB
:100450000406C4F81CA00027C4F818A02A2D09D04F
:10046000284608F056FA38B304EB8708303DC8F840
:10047000185019E059F8041B204604EB87029161DB
:10048000E1688847012F054618D1E069002820DA85
:1004900026F020061DE0D8F8180000EB800005EBE0
:1004A00040003038C8F818002046E1688847054603
:1004B00008F02FFA0028EED1012F0AD02E2D08D1F6
:1004C0002046E16888477F1C0546022F46F020063B
:1004D000C4DBA069002803DA404246F00106A061AF
:1004E000F00701D026F010066C2D0BD0682D09D036
:1004F0004C2D39D06A2D35D0742D35D07A2D33D08E
:1005000016E038E0E1682F4620468847B8420546A5
:1005100009D16C2F26D04FF48060E1680643204655
:100520008847054604E06C2F1AD04FF480700643CC
:100530000DB3A5F14100192802D8203546F4006614
:100540004A462946204626604E46FFF74BFE80B1BC
:1005500001280BD0F61D26F0070000F1080956E728
:100560004020E4E78020D8E70020D6E706F1040920
:100570004DE7284652E7206ABDE8F09FA8BF00007B
:100580004FF0013C50F8042B51F8043B9A4221D122
:10059000A2EB0C03934313EACC1317D150F8042BAE
:1005A00051F8043B9A4215D1A2EB0C03934313EA92
:1005B000CC130BD150F8042B51F8043B9A4209D1CB
:1005C000A2EB0C03934313EACC13DBD04FF00000F3
:1005D000704700BFD01A01BAB1FA81F101F01801D9
:1005E00022FA01F0CB40C1F12001DBB2C0B2C01A47
:1005F0002CFA01F3D11A914311EAC311E6D17047E5
:10060000704770477047704710B500F089F8006870
:1006100010BD10B5044600F083F8046010BD2DE94C
:10062000F0470D4699469246044600F124080168B9
:10063000880604D5E06921F01001216000E0012066
:10064000A84201DD471B00E00027A1697A1902EBEF
:100650000900081AA0612078C00602D42046FFF7DE
:1006600013FE002608E0D4E901211AF8060090479D
:10067000206A401C761C20624E45F4DB2078C006C0
:100680000AD52046FFF700FE06E0D4E9012130201C
:100690009047206A401C2062381EA7F10107F4DC55
:1006A00007E0D4E9012118F805009047206A401CB2
:1006B0002062281EA5F10105F3DC2046FFF7FAFDB4
:1006C0002078000602D50220BDE8F0870120FBE774
:1006D00010B5436913B1AFF3008001E0FFF7FBFDF4
:1006E000012010BD127800F124010A7000224A7026
:1006F0000122EDE711684FF0FF32E9E7074B70B5D3
:100700000D467B4400F015F80446284600F024F816
:1007100010B14FF0FF3070BD204670BDFF82000069
:1007200000487047940E002001694A1C0261087855
:10073000704700B58FB0CDE9013100210591054921
:100740007944CDE9031011466846FFF755FE0FB016
:1007500000BD0000E5FFFFFF007B00F08000704758
:1007600000487047940E00207546FFF7F9FFAE462B
:1007700005006946534620F00700854618B020B5AD
:10078000FFF762FDBDE820404FF000064FF0000784
:100790004FF000084FF0000B21F00701AC46ACE829
:1007A000C009ACE8C009ACE8C009ACE8C0098D4696
:1007B00070470446AFF300802046FFF731FD21B1BA
:1007C000826842F00102826003E0826822F0010246
:1007D0008260704721B1826842F48072826003E0D7
:1007E000826822F4807282607047000010B504466F
:1007F0001248844208D10121401506F049FF00212A
:10080000601506F045FF17E00D48844208D101212C
:10081000001506F03DFF0021201506F039FF0BE022
:100820000848844208D10121C80306F031FF0021A5
:100830004FF4004006F02CFF10BD000000240140E2
:1008400000280140003C0140014600208A6802F077
:1008500004020AB1012000E0002070470146002098
:100860008A6802F008020AB1012000E00020704707
:1008700030B502460020002350680F4C20400D790F
:100880000C6844EA05242043506090680B4C2040DB
:10089000D1E902542C434D7944EA45042043906049
:1008A000D06A20F470000C7C641EE4B2234340EA5A
:1008B0000350D06230BD0000FFFEF0FFFDF7F1FFF6
:1008C000F0B504460D4600200021092D11DDE06839
:1008D000A5F10A0606EB4607072606FA07F1884344
:1008E000A5F10A0606EB460603FA06F10843E060A6
:1008F0000CE0206905EB4507072606FA07F1884357
:1009000005EB450603FA06F108432061072A0FDAD2
:10091000606B561E06EB86071F2606FA07F1884312
:10092000561E06EB860605FA06F10843606322E0D0
:100930000D2A0FDA206BD61F06EB86071F2606FA54
:1009400007F18843D61F06EB860605FA06F1084331
:10095000206310E0E06AA2F10D0606EB86071F2671
:1009600006FA07F18843A2F10D0606EB860605FAA2
:1009700006F10843E062F0BD816841F00801816042
:10098000704721B1826842F4A002826003E082686D
:1009900022F4A00282607047816841F00401816006
:1009A000704710B501F0FEF810BD2DE9F041074683
:1009B0000C460026002509E036023919491B491E5C
:1009C00088B200F008F80644681CC5B2A542F3DB03
:1009D0003046BDE8F08170B50446002601F096F976
:1009E0002546E11704EB11610912A02202EB410137
:1009F000C8B201F057F901F0D5F9E11704EB116124
:100A00000912A4EB0121C8B201F04CF901F0CAF9B6
:100A100001F07CF9A12001F045F901F0C3F90020B3
:100A200001F008F9064601F097F9304670BD2DE94E
:100A3000F04105460E461746002409E0E20026FA7A
:100A400002F2D1B22A1990B200F006F8601CC4B2CA
:100A5000BC42F3DBBDE8F08170B504460E4601F000
:100A600055F92546E11704EB11610912A02202EBAA
:100A70004101C8B201F016F901F094F9E11704EB55
:100A800011610912A4EB0121C8B201F00BF901F0C8
:100A900089F9304601F006F901F084F901F05CF9BA
:100AA0000A2007F063FF70BD00B587B000F0B8FA08
:100AB00001214FF4017006F0DBFD4FF4004006F019
:100AC000ABFD0220ADF8040000208DF8070001A95D
:100AD000204800F0A6FC2048FFF788FE0020029086
:100AE0008DF80C0001208DF80D004FF4602004906B
:100AF0000020059001208DF8180002A91648FFF784
:100B0000B7FE01211448FFF75AFE002301221146C7
:100B10001148FFF7D5FE1048FFF72EFF00BF0E4823
:100B2000FFF79CFE0028FAD10B48FFF735FF00BF06
:100B30000948FFF789FE0028FAD101210648FFF78E
:100B400020FF022007F012FF01210348FFF742FEB9
:100B500007B000BD000801400024014000BFFEE7CF
:100B600010B50A2007F028FF10BD000010B50020C6
:100B70000E4908600E48006820F470400C49086077
:100B80000846006840F44050086000200949C1F858
:100B90008C01FFF7E5FF012004490860FFF7E0FF43
:100BA00000200449C1F8800110BD000080012242EC
:100BB00000100140000022420F48806940F0100000
:100BC0000D4988610D4800684FF20F0188430B49B9
:100BD00008600846006843F20301084307490860BB
:100BE0000846C06840F00200C8600846C06840F08F
:100BF0000800C8607047000000100240001001406B
:100C000010B500200E4908600E48006820F47040BE
:100C10000C4908600846006840F440500860012014
:100C20000949C1F88C01FFF79BFF012004490860C6
:100C3000FFF796FF00200449C1F8800110BD0000B5
:100C400080012242001001400000224270B505469A
:100C500000241548006820F47040134908600846D5
:100C6000006840F400400860002613E000200F49AF
:100C700008601E2007F0A0FE01200D49C1F8800188
:100C80006006040E09487438006808B1601CC4B2DC
:100C9000701CC6B2082EE9DB15B9FFF7B1FF01E001
:100CA000FFF764FF204670BD001001408001224222
:100CB0000000224270B504461248006820F47040DB
:100CC000104908600846006840F440500860002061
:100CD0000D490860002512E0E0090B490C3108605D
:100CE0006006040E01200949C1F88001FFF738FFB2
:100CF000002005490860FFF733FF681CC5B2082DC6
:100D0000EADB70BD00100140800122420000224257
:100D100010B50E48006820F470400C490860084681
:100D2000006840F440500860012009490860094902
:100D3000C1F88001FFF714FF002005490860FFF7A4
:100D40000FFF00200349C1F8800110BD00100140D1
:100D50008C0122420000224210B50E48006820F4A7
:100D600070400C4908600846006840F44050086034
:100D70000020094908600949C1F88C01FFF7F0FE1D
:100D8000012005490860FFF7EBFE01200349C1F887
:100D90008C0110BD0010014080012242000022425F
:100DA00010B500241448006820F47040124908600F
:100DB0000846006840F40040086001200F490860C0
:100DC00007F0FAFD01200E49C1F8800107F0F4FD9B
:100DD00007E0601CC4B2FA2C03DDFFF7BDFF012061
:100DE00010BD0648803800680028F2D103490C394C
:100DF000086000BFF4E70000001001408C012242AF
:100E00000000224239B1084A1268012383401A4384
:100E1000054B1A6006E0044A1268012383409A4396
:100E2000014B1A60704700000074004030B500228A
:100E300000230A4C226840F6FE748440A243D1E9A4
:100E400000452C438D682C43CD6844EA050303FA22
:100E500000F42243014C226030BD000000740040C9
:100E600008B500220092054A009200F10802009B9A
:100E70001A440092009A116008BD000000740040FE
:100E800021B1026842F00102026004E002684FF6FC
:100E9000FE731A400260704701684FF6FE721140FF
:100EA00001600021016041608160C1604B4988425E
:100EB00008D14A490839496841F00F01474A083AC0
:100EC00051608AE045491431884208D143490839C4
:100ED000496841F0F001414A083A51607DE03F49DC
:100EE0002831884208D13D490839496841F4706188
:100EF0003A4A083A516070E038493C31884208D19A
:100F000036490839496841F47041344A083A516019
:100F100063E032495031884208D130490839496884
:100F200041F470212D4A083A516056E02B49643152
:100F3000884208D129490839496841F47001274A93
:100F4000083A516049E025497831884208D123495F
:100F50000839496841F07061204A083A51603CE024
:100F60001F49884206D1011F096841F00F01021F85
:100F7000116032E01A491431884208D11849091F1A
:100F8000096841F0F001164A121F116025E014496A
:100F90002831884208D11249091F096841F470615B
:100FA0000F4A121F116018E00D493C31884208D1E8
:100FB0000B49091F096841F47041094A121F116069
:100FC0000BE007495031884207D10549091F0968DC
:100FD00041F47021024A121F11607047080002405C
:100FE0000804024010B50022026847F6F0739A43E5
:100FF0000C6A8B6823430C6923434C6923438C6937
:101000002343CC6923434C6A23438C6A23431A430A
:101010000260CB6843600B6883604B68C36010BD9F
:1010200000B58BB00121084606F002FB1248FFF71D
:1010300033FF1248009012480190002002904FF4B4
:1010400000700390002004908020059040000690DE
:1010500080000790002008904FF400500990002075
:101060000A9069460448FFF7BDFF00210248FFF7D8
:1010700007FF0BB000BD0000080002404C240140F7
:10108000DA02002000B585B00121042006F0F0FA54
:101090000121480706F0DCFA1020ADF8100000200E
:1010A0008DF8130003208DF8120004A90D4800F0FC
:1010B000B8F910210B4800F089FA00200090019047
:1010C00002900220039069460020FFF7AFFE012145
:1010D0000020FFF797FE00210846FFF7C1FE05B08C
:1010E00000BD000000080140704700001CB5012150
:1010F000102006F0BDFA4FF40050ADF800001020AB
:101100008DF8030003208DF8020069462D4800F099
:1011100088F94FF400512B4800F058FA0220ADF83E
:10112000000048208DF803006946264800F079F950
:101130000221244800F04AFAFFF73EFD0020224930
:101140000860142007F012FC01202049C1F8B40106
:10115000322007F00BFC00208DF80400012201A9C9
:1011600000F036F9012201A9A42000F031F916207F
:101170008DF80400012201A9802000F029F90C203B
:101180008DF80400012201A9882000F021F9022233
:1011900001A9A12000F022F89DF8040030280ED10A
:1011A0009DF8050003280AD19DF805009DF804204C
:1011B00000EB022106A0FFF75BF800201CBD012018
:1011C000FCE7000000100140B4012242000022426E
:1011D0004354502049443A25780D0A002DE9F04146
:1011E00006460F461546FFF793FD7020FFF762FD98
:1011F000FFF7D6FDF0B2FFF75DFDFFF7D1FDFFF77A
:1012000087FD7120FFF756FDFFF7CAFD00240BE0B4
:10121000691EA14201D0012100E000210846FFF72C
:1012200015FD3855601CC4B2AC42F1DBFFF794FDEC
:10123000BDE8F08171B581B00024002661480078D6
:10124000401C60490870084600780A2190FBF1F2C2
:1012500001FB120018B15B4800780A2867DA012206
:1012600001A90220FFF7BAFF9DF8040000F00F006B
:1012700000287ED09DF8040000F00F00062878DAE0
:101280009DF8040000F00F01FF208840C5B2E8433C
:10129000C0B240F0C0004C4981F8200000245AE060
:1012A000494890F820000121A1400840F0B3474987
:1012B00031F8140004226946FFF790FF424890F885
:1012C000300000F00100C0B19DF801009DF8001051
:1012D00001F00F0100EB01203B49163121F8140009
:1012E0009DF803009DF8021001F00F0100EB0121B1
:1012F00035480C3020F814101DE09DF801009DF8D1
:10130000001001F00F0100EB0120C0F5F07081B278
:101310002D480C3020F814109DF803009DF80210A1
:1013200001F00F0100EB0121274801E011E020E06E
:10133000163020F814109DF8000000F0F00080280E
:1013400007D000212048163020F814100A3820F861
:101350001410601CC4B2052CA2DB01261A48808937
:1013600020B91948C08A08B9002001900020154909
:1013700008709DF8040000F01F00D0B9124890F8E2
:10138000200000F0800040B10F4890F8200020F0CD
:1013900080000D4981F820000BE04FF6FF700A49EC
:1013A0008881C882084690F8200000F0E00081F8AB
:1013B000200004480078F02802DD0A200149087066
:1013C00030467CBD590000201C00002082C300086C
:1013D0002DE9F04105460E4617464FF00008FFF78D
:1013E00097FC7020FFF766FCFFF7DAFCE8B2FFF726
:1013F00061FCFFF7D5FC00240BE0305DFFF75AFCE1
:10140000FFF7CEFC8046B8F1000F00D003E0601C6F
:10141000C4B2BC42F1DB00BFFFF79EFC4046BDE812
:10142000F0812DE9F041024600250026002000232E
:101430000024002791F803C00CF00F0591F803C0B9
:101440000CF0100CBCF1000F03D091F802C04CEA74
:10145000050591F800C0BCF1000F31D014680020E0
:101460002BE04FF0010C0CFA00F3B1F800C00CEACD
:1014700003069E4220D183004FF00F0C0CFA03F7B5
:10148000BC4305FA03FC4CEA040491F803C0BCF128
:10149000280F06D14FF0010C0CFA00FCC2F814C062
:1014A0000AE091F803C0BCF1480F05D14FF0010CE0
:1014B0000CFA00FCC2F810C0401C0828D1D31460FC
:1014C000B1F800C0BCF1FF0F34DD546800202EE0FD
:1014D00000F1080C4FF0010808FA0CF3B1F800C055
:1014E0000CEA03069E4221D183004FF00F0C0CFA48
:1014F00003F7BC4305FA03FC4CEA040491F803C06B
:10150000BCF1280F05D100F1080C08FA0CF8C2F85C
:10151000148091F803C0BCF1480F07D100F1080C0A
:101520004FF0010808FA0CF8C2F81080401C082897
:10153000CED35460BDE8F081F0B50A460023002404
:101540000021002500F00046B6F1004F02D11D4EEB
:10155000F16901E01B4E7168C0F3034583B200F4EA
:101560004016B6F5401F08D121F07061154E76681F
:1015700026F07066134F7E6012E000F48016B6F518
:10158000801F06D1032606FA05F4A14341F07061DD
:1015900006E0460D360103FA06F6B14341F07061EC
:1015A00022B1460D360103FA06F6314300F000463B
:1015B000B6F1004F02D1034EF16101E0014E7160BE
:1015C000F0BD0000000001404161704701617047BB
:1015D0000EB50121102006F04BF842F20200ADF8E2
:1015E000000010208DF8030003208DF802006946EA
:1015F0003448FFF716FF02213248FFF7E7FF4FF4A8
:1016000000513048FFF7E2FFFFF7D6FA00202E49DD
:1016100008600A2007F0AAF901202C49C1F8B4019A
:101620000A2007F0A3F90220ADF8000028208DF869
:10163000030069462348FFF7F4FE02212148FFF723
:10164000C3FF642007F092F9042201A948F2401078
:1016500000F052F800208DF8080001A91CA0FEF748
:1016600007FE1EA101A8FEF78BFF40BB02208DF8EC
:101670000400012201A948F2400000F06FF90122A4
:1016800001A948F2470000F037F89DF804006028EF
:1016900007DA9DF8041013A0FEF7EAFD012000F020
:1016A0002FF90A2007F062F900208DF804000122CA
:1016B00001A948F2400000F051F900200EBD0120C0
:1016C000FCE7000000100140B40122420000224269
:1016D0004354502049443A25730D0A0039313437B8
:1016E0000000000044656661756C74205665723AAE
:1016F00025640D0A000000002DE9F04105460F4663
:101700001646FFF705FB2820FFF7D4FAFFF748FB42
:101710002812FFF7CFFAFFF743FBE8B2FFF7CAFA48
:10172000FFF73EFBFFF7F4FA2920FFF7C3FAFFF7B4
:1017300037FB00240BE0711EA14201D0012100E023
:1017400000210846FFF782FA3855601CC4B2B44243
:10175000F1DBFFF701FBBDE8F081000031B582B09D
:101760000024002563480078401C62490870084640
:1017700000780A2190FBF1F201FB120018B15D48DC
:1017800000780A287DDA012202A948F24E10FFF7FC
:10179000B3FF9DF8080000F00F0000286BD09DF803
:1017A000080000F00F00062865DA9DF8080000F038
:1017B0000F01FF208840C0B200909DF80000C04398
:1017C000C0B240F0C0004C4981F82000002444E041
:1017D000494890F820000121A140084020B3474922
:1017E00031F81400042201A9FFF786FF424890F85F
:1017F000300000F00100C0B19DF804009DF8051014
:1018000000EB012081B23C48163020F814109DF8FE
:1018100006009DF8071000EB0120C0F5487081B26A
:1018200035480C3020F8141015E09DF804009DF8A0
:10183000051000EB012081B22F480C3020F8141065
:101840009DF806009DF8071000EB012081B22A48A0
:10185000163020F81410601CC4B2052CB8DB01252A
:101860002548808920B92448C08A08B90020029000
:101870000020204908709DF8080000F0800000B1A9
:1018800000E00DE09DF8080000F00F00062807DAE0
:10189000002000900122694648F24E1000F05EF8E8
:1018A0009DF8080000F08F0080281AD1124890F8A7
:1018B000200000F0800040B10F4890F8200020F098
:1018C00080000D4981F820000BE04FF6FF700A49B7
:1018D0008881C882084690F8200000F0E00081F876
:1018E000200004480078F02802DD0A200149087031
:1018F00028463EBD580000201C00002078C3000888
:1019000038B50546002400208DF800008DF8015000
:1019100000BF09E09DF800000F49095D0844C0B20E
:101920008DF80000601CC4B2B82CF3D39DF8000001
:10193000C043401CC0B28DF80000B822064948F2EE
:10194000470000F00BF80222694648F2FF0000F061
:1019500005F8002038BD0000C0C200082DE9F041A4
:1019600004460E4617464FF00008FFF7D1F928202D
:10197000FFF7A0F9FFF714FA2012FFF79BF9FFF722
:101980000FFAE0B2FFF796F9FFF70AFA00250BE02D
:10199000705DFFF78FF9FFF703FA8046B8F1000F8B
:1019A00000D003E0681CC5B2BD42F1DB00BFFFF709
:1019B000D3F94046BDE8F0811CB5002000F0C8FA1C
:1019C0004FF4877332221146104600F0A1FB4FF40A
:1019D0008773C8223221104600F09AFB3223C822B6
:1019E0001946184600F094FB4FF48773C822194635
:1019F000322000F08DFB4FF487737D223221104698
:101A000000F086FB6923C8221946322000F080FBD3
:101A1000A023C8221946322000F07AFBD723C8221F
:101A20001946322000F074FB012000F091FA33A037
:101A300010214B233722CDE900105521104605F027
:101A4000E5FA30A010214B233722CDE900105521B3
:101A50006E2005F0DBFA2DA010214B233722CDE9B3
:101A600000105521A52005F0D1FA29A010214B2303
:101A70003722CDE900105521DC2005F0C7FA26A059
:101A800010214B233722CDE9001055210A2005F003
:101A9000BDFA23A010214B233722CDE900108C2161
:101AA000104605F0B3FA1FA010214B233722CDE9D1
:101AB00000108C216E2005F0A9FA1DA010214B23E7
:101AC0003722CDE900108C21A52005F09FFA1BA03C
:101AD00010214B233722CDE900108C21DC2005F0AA
:101AE00095FA19A010214B233722CDE9001091213E
:101AF0004FF48C7005F08AFA1CBD00004C4546542A
:101B000000000000524947485400000055500000B2
:101B1000444F574E000000004D6F766500000000F6
:101B200053696E00536177746F6F74680000000032
:101B3000547269616E676C650000000052656374E1
:101B4000616E67756C617200576176650000000018
:101B500000BFFEE710B500200F4908600F4840683D
:101B600020F470400D4948600846406840F44050F9
:101B7000486000200A49C1F8AC01022006F01CFFB1
:101B8000012005490860022006F016FF00200449E4
:101B9000C1F8B00110BD0000B001224200100140A8
:101BA0000000224208B50121102005F061FD4FF42C
:101BB000C050ADF8000010208DF8030003208DF810
:101BC000020069460448FFF72CFC01200349086025
:101BD0000349C1F8AC0108BD00100140B001224228
:101BE0000000224210B500200F4908600F484068ED
:101BF00020F470400D4948600846406840F4405069
:101C0000486001200A49C1F8AC01022006F0D4FE68
:101C1000012005490860022006F0CEFE002004499C
:101C2000C1F8B00110BD0000B00122420010014017
:101C30000000224270B5054600241748406820F491
:101C40007040154948600846406840F400404860CC
:101C5000002616E0002011490860022006F0ACFEC4
:101C600001200F49C1F8B0016006040E0B4884380A
:101C7000006808B1601CC4B2012006F09DFE701C13
:101C8000C6B2082EE6DB15B9FFF7ACFF01E0FFF79F
:101C900061FF204670BD000000100140B0012242EB
:101CA0000000224270B504461548406820F4704098
:101CB000134948600846406840F44050486000209E
:101CC00010490860002517E0E0090E49091F086067
:101CD0006006040E022006F06FFE01200A49C1F8DA
:101CE000B001022006F068FE0020064908600220CC
:101CF00006F062FE681CC5B2082DE5DB70BD000071
:101D000000100140B00122420000224210B50F48ED
:101D1000406820F470400D4948600846406840F42F
:101D20004050486001200A4908600A49C1F8B001E2
:101D3000042006F041FE002005490860042006F05A
:101D40003BFE00200349C1F8B00110BD0010014066
:101D5000AC0122420000224210B50F48406820F436
:101D600070400D4948600846406840F44050486063
:101D700000200A4908600A49C1F8AC01042006F0B5
:101D80001BFE0120054908600549C1F8AC0104208B
:101D900006F012FE10BD000000100140B00122420A
:101DA0000000224210B500241448406820F470401E
:101DB000124948600846406840F4004048600120ED
:101DC0000F49086006F0F8FD01200E49C1F8B00186
:101DD00006F0F2FD07E0601CC4B2FA2C03DDFFF749
:101DE000BBFF012010BD0648803800680028F2D1F2
:101DF0000349091D086000BFF4E70000001001401E
:101E0000AC0122420000224210B506F08DFD4FF4D5
:101E1000A06005F03DFA4FF4165006F049FE05F0BB
:101E2000CBF900F073FC00F011F806490868804710
:101E30000548416848208847FEF736FEFFF722F93B
:101E400010BD00001C000020FC00002008B501218E
:101E5000142005F00DFC01211148FFF76DFB4FF434
:101E60000040ADF8000048208DF8030069460D4899
:101E7000FFF7D7FA2020ADF8000048208DF80300C6
:101E800069460948FFF7CDFA0120ADF80000282087
:101E90008DF8030069460348FFF7C3FA08BD000048
:101EA00000023000000801400010014030B501463A
:101EB00001F01F04C1F34513CA0AE50205EB4315FF
:101EC0001544A8B230BD000070B5044600261D4878
:101ED0000588408845431B48808846F604018842AF
:101EE00016D118488079012812D10020154988712F
:101EF0002A2048812B2088810021084604F0CAFD51
:101F00000120104988712B2048812A20888103E014
:101F10000021084604F0BEFD05F02EF900260DE074
:101F20004FF4807008490861400048610748046028
:101F300080204861086180000861761CAE42EFD3C2
:101F400070BD000004020020001001400C0C014094
:101F500010B50446002C66D16C498871F0200880C9
:101F60004FF4A07048800846808849F24131884289
:101F70000BD06648808846F60401884205D0634845
:101F8000808845F2103188421AD12C205F4908819F
:101F90002A2048812B2088810846808846F6040143
:101FA000884205D05948808845F21031884206D1D0
:101FB0004FF4A070554908804FF4F0704880A1E0BC
:101FC0005248808845F21051884210D14FF4305069
:101FD0004E4908814FF4285048814FF42C50888195
:101FE0004FF4F07008804FF4487048808AE047480A
:101FF000808841F6631188420DD12C204349088125
:102000002B2048812A2088814FF4F07008804FF4FB
:102010004870488076E022203C4908812020488191
:10202000212088816EE00120384988714FF4A0702A
:102030000880F02048800846808849F24131884273
:1020400005D03248808845F21031884207D12C20D3
:102050002E4908812A2048812B2088813FE02B4887
:10206000808846F60401884207D12C202749088140
:102070002B2048812A20888131E02448808845F23D
:102080001051884210D14FF43050204908814FF44C
:10209000285048814FF42C5088814FF448700880B4
:1020A0004FF4F07048801AE01848808841F66311B8
:1020B00088420DD12C20154908812A2048812B20E7
:1020C00088814FF4487008804FF4F070488006E033
:1020D00022200E49088121204881202088810B4838
:1020E000808846F60401884205D00848808845F279
:1020F0001031884206D14FF4F070044908804FF443
:10210000A0704880002004F099FA10BD040200205D
:102110002DE9FF4F84B081468A460020039002904B
:102120000698A0EB09050798A0EB0A06CDF80490E5
:10213000CDF800A0002D01DD012705E00DB9002735
:1021400002E04FF0FF376D42002E02DD4FF0010834
:1021500006E016B94FF0000802E04FF0FF38764273
:10216000B54201DD2C4600E034464FF0000B21E083
:10217000009A91B2019A90B200F022F80398284494
:1021800003900298304402900398A04205DD039822
:10219000001B03900198384401900298A04205DD8D
:1021A0000298001B02900098404400900BF101003F
:1021B0001FFA80FB601C8345DADD08B0BDE8F08FB4
:1021C00030B504460D462946204604F063FC04F071
:1021D000D3FF4FF48070074908614000486106480A
:1021E0000088064908608020024948610861800033
:1021F000086130BD00100140140000200C0C0140AB
:10220000F0B504460D4616461F462B463246294673
:102210002046FFF77DFF3B46224629462046FFF732
:1022200077FF3B46324639462046FFF771FF3B4673
:10223000324629463046FFF76BFFF0BD2DE9F043EB
:1022400006460F469046002445460320A0EB480969
:102250003CE07A1B91B2321990B2FFF7B1FF3A1B02
:1022600091B2721990B2FFF7ABFF3A1991B272199D
:1022700090B2FFF7A5FF7A1991B2321990B2FFF729
:102280009FFF7A1991B2321B90B2FFF799FF3A196A
:1022900091B2721B90B2FFF793FF7A1B91B2321B7F
:1022A00090B2FFF78DFF3A1B91B2721B90B2FFF70D
:1022B00087FF641CB9F1000F03DAA000801D814480
:1022C00004E0601B80000A3081446D1EAC42C0DD1A
:1022D000BDE8F08370B504460D461646D3488088A5
:1022E00049F24131884205D0D048808845F210310A
:1022F000884240D1CD49488904F02CFF4FF48070CA
:10230000CB490861400048612012CA49086080201A
:10231000C7494861086180000861401008614000B9
:102320004861E0B2C34908608020C1494861086142
:1023300080000861BD49888904F00CFF4FF480706B
:10234000BB490861400048612812BA4908608020F2
:10235000B749486108618000086140100861400089
:102360004861E8B2B34908608020B149486108611A
:10237000800008613DE1AD48808845F210518842F7
:1023800050D1AA49488904F0E5FE4FF48070A8496D
:102390000861400048612012A64908608020A449D5
:1023A0004861086180000861A0494989491C88B2D8
:1023B00004F0D0FE4FF480709D49086140004861F0
:1023C000E0B29C490860802099494861086180001A
:1023D00008619649888904F0BDFE4FF480709449E5
:1023E00008614000486128129249086080209049A5
:1023F00048610861800008618C498989491C88B25C
:1024000004F0A8FE4FF480708949086140004861DB
:10241000E8B28849086080208549486108618000E9
:102420000861E6E08148808841F6631188427DD1E9
:102430007E48807920B97D480088401E001B84B208
:102440007A49488904F086FE4FF480707849086123
:102450004000486120127749086080207449486133
:102460000861800008614010086140004861E0B2E6
:102470007049086080206E494861086180000861E9
:10248000401008614000486120126A4908608020BD
:102490006749486108618000086140100861400098
:1024A0004861E0B263490860802061494861086181
:1024B000800008615D49888904F04CFE4FF480700B
:1024C0005B4908614000486128125A490860802031
:1024D0005749486108618000086140100861400068
:1024E0004861E8B253490860802051494861086159
:1024F00080000861401008614000486128124D4981
:10250000086080204A4948610861800008614010E5
:10251000086140004861E8B24649086080204449AB
:10252000486108618000086163E0FFE73F488088F8
:1025300046F60401884249D13C488079012804D1FB
:102540003A480088401E001B84B23849488904F08C
:1025500001FE4FF480703649086140004861201246
:102560003449086080203249486108618000086170
:102570004010086140004861E0B22E4908608020A8
:102580002B4948610861800008612849888904F066
:10259000E1FD4FF48070264908614000486128122F
:1025A0002449086080202249486108618000086150
:1025B0004010086140004861E8B21E490860802070
:1025C0001B49486108618000086112E01748807962
:1025D000012804D115480088401E001B84B213490D
:1025E0004889214604F0D0FD10498889294604F025
:1025F000CBFD4FF480700E494861400048610B48A4
:1026000000890C4908608020094948610861800000
:10261000086140100861400048610648066080205B
:10262000486108618000086170BD0000040200205C
:10263000001001400C0C01402DE9FC4F05460E46F0
:1026400017469846DDF82C90002001902C48808891
:1026500046F60401884229D129488079012825D1EC
:10266000AB46354626480088C01B401E86B247460A
:1026700023480088A0EB0B00401E1FFA80F80020C2
:102680001F4988712A2048812B20888143463A4679
:1026900031462846CDF80090FFF7CEFF01201849BB
:1026A00088712B2048812A20888127E0781B401CD4
:1026B00080B2019034461FE02146284604F0EAF932
:1026C00004F05AFD4FF0000A11E04FF480700D49FC
:1026D0000861400048610C48C0F8009080204861C3
:1026E0000861800008610AF101001FFA80FA019870
:1026F0008245EADB601C84B24445DDDDBDE8FC8F29
:1027000004020020001001400C0C014008B501211A
:10271000192004F0ADFF0121FE48FEF70DFF4FF434
:10272000F860ADF8000010208DF8030003208DF84C
:1027300002006946F848FEF774FE4FF4F861F64867
:10274000FEF744FF4FF6FF70ADF800006946F3480E
:10275000FEF767FE4FF6FF71F048FEF737FF3220B5
:1027600006F004F90121002004F00EFD322006F0ED
:10277000FDF8002003F0F0FEE949888008468088D3
:10278000FF280ADB084680884FF6FF71884204D094
:10279000E3488088B0F5134F7ED1D32004F0DAFCF3
:1027A00003F09EFD03F09CFD03F09AFDDC49888058
:1027B000084680884FF6FF7101EA0020D8498880DA
:1027C00003F08EFDD64989880843D549888008469C
:1027D000808849F2413188425ED0BF2004F0BAFCC3
:1027E00003F07EFD03F07CFD03F07AFD03F078FD3D
:1027F000CB498880084680884FF6FF7101EA0020A7
:10280000C749888003F06CFDC54989880843C449DD
:1028100088800846808846F60401884274D0D42017
:1028200004F098FC03F05CFD03F05AFD03F058FD42
:10283000BB498880084680884FF6FF7101EA002076
:10284000B749888003F04CFDB54989880843B449ED
:1028500088800846808845F21031884254D04FF471
:102860005A4004F077FC03F03BFD4FF45B4004F06A
:1028700071FC03F035FDAA498880084680884FF630
:10288000FF7101EA0020A64988804FF45C4004F003
:1028900061FC03F025FD00E036E0A149898808438A
:1028A0009F49888008468088B0F5004F02D145F2E4
:1028B000105088809A48808845F21051884223D071
:1028C000A12004F047FC03F00BFD9549888003F03C
:1028D00007FD93498880084680884FF6FF7101EA1A
:1028E00000208F49888003F0FBFC8D4989880843CC
:1028F0008B4988800846808845F26171884203D1FF
:1029000041F66310864988808548818885A0FDF757
:10291000AFFC8348808849F2413188427ED1CF2084
:1029200004F018FC002004F003FCC12004F000FCBB
:10293000302004F0FDFBED2004F00CFC642004F0DA
:10294000F7FB032004F0F4FB122004F0F1FB8120DC
:1029500004F0EEFBE82004F0FDFB852004F0E8FB2A
:10296000102004F0E5FB7A2004F0E2FBCB2004F019
:10297000F1FB392004F0DCFB2C2004F0D9FB002013
:1029800004F0D6FB342004F0D3FB022004F0D0FB8B
:10299000F72004F0DFFB202004F0CAFBEA2004F05B
:1029A000D9FB002004F0C4FB002004F0C1FBC020D0
:1029B00004F0D0FB1B2004F0BBFBC12004F0CAFBD9
:1029C000012004F0B5FBC52004F0C4FB302004F066
:1029D000AFFB302004F0ACFBC72004F0BBFBB720FA
:1029E00004F0A6FB362004F0B5FB482004F0A0FB61
:1029F0003A2004F0AFFB552004F09AFBB12004F01C
:102A0000A9FB002004F094FB1A2004F091FBB620EF
:102A100004F0A0FB0A2004F08BFB00E0A9E0A22058
:102A200004F086FBF22004F095FB002004F080FB0C
:102A3000262004F08FFB012004F07AFBE02004F054
:102A400089FB0F2004F074FB2A2004F071FB28207E
:102A500004F06EFB082004F06BFB0E2004F068FB12
:102A6000082004F065FB542004F062FBA92004F068
:102A70005FFB432004F05CFB0A2004F059FB0F20AD
:102A800004F056FB002004F053FB002004F050FB40
:102A9000002004F04DFB002004F04AFBE12004F08C
:102AA00059FB002004F044FB152004F041FB1720E3
:102AB00004F03EFB072004F03BFB112004F038FB40
:102AC000062004F035FB2B2004F032FB562004F0E6
:102AD0002FFB3C2004F02CFB052004F029FB1020E8
:102AE00004F026FB0F2004F023FB3F2004F020FB22
:102AF0003F2004F01DFB0F2004F01AFB2B2004F0F4
:102B000029FB002004F014FB002004F011FB01203D
:102B100010E000000002300000100140000C0140F5
:102B200004020020204C43442049443A25780D0AF1
:102B30000000000004F0FCFA3F2004F0F9FA2A201B
:102B400004F008FB002004F0F3FA002004F0F0FA8F
:102B5000002004F0EDFAEF2004F0EAFA112004F06E
:102B6000F9FA782005F002FF292004F0F3FA03F0C7
:102B70009ABBFE48808846F6040188427ED1112027
:102B800004F0E8FA142005F0F1FED02004F0E2FA97
:102B9000072004F0CDFA422004F0CAFA1D2004F008
:102BA000C7FAD12004F0D6FA002004F0C1FA1A20A6
:102BB00004F0BEFA092004F0BBFAD22004F0CAFAED
:102BC000012004F0B5FA222004F0B2FAC02004F08B
:102BD000C1FA102004F0ACFA3B2004F0A9FA00205E
:102BE00004F0A6FA022004F0A3FA112004F0A0FADF
:102BF000C52004F0AFFA032004F09AFAC82004F0CC
:102C0000A9FA002004F094FA252004F091FA21207A
:102C100004F08EFA052004F08BFA002004F088FA04
:102C20000A2004F085FA652004F082FA252004F0D9
:102C30007FFA772004F07CFA502004F079FA0F2014
:102C400004F076FA002004F073FAF82004F082FA17
:102C5000012004F06DFAFE2004F07CFA002004F05C
:102C600067FA022004F064FA202004F073FA362098
:102C700004F070FA082004F05BFA00E02AE03A2041
:102C800004F068FA552004F053FA2B2004F062FA9D
:102C9000002004F04DFA002004F04AFA012004F06C
:102CA00047FA3F2004F044FA2A2004F053FA0020A7
:102CB00004F03EFA002004F03BFA012004F038FA58
:102CC000DF2004F035FA782005F050FE292004F0CA
:102CD00041FA4CE7A548808845F21031884240F01F
:102CE0007C87ED2004F036FA012004F021FAFE2062
:102CF00004F01EFAEE2004F02DFADE2004F018FA9B
:102D0000212004F015FAF12004F024FA012004F047
:102D10000FFADF2004F01EFA102004F009FAC42094
:102D200004F018FA8F2004F003FAC62004F012FA17
:102D3000002004F0FDF9E22004F0FAF9E22004F0AA
:102D4000F7F9E22004F0F4F9BF2004F003FAAA2016
:102D500004F0EEF9B02004F0FDF90D2004F0E8F9DC
:102D6000002004F0E5F90D2004F0E2F9002004F061
:102D7000DFF9112004F0DCF9002004F0D9F9192062
:102D800004F0D6F9002004F0D3F9212004F0D0F9A2
:102D9000002004F0CDF92D2004F0CAF9002004F041
:102DA000C7F93D2004F0C4F9002004F0C1F95D200A
:102DB00004F0BEF9002004F0BBF95D2004F0B8F97E
:102DC000002004F0B5F9B12004F0C4F9802004F02B
:102DD000AFF9002004F0ACF98B2004F0A9F9002031
:102DE00004F0A6F9962004F0A3F9002004F0A0F95D
:102DF000B22004F0AFF9002004F09AF9002004F0AA
:102E000097F9022004F094F9002004F091F90320CE
:102E100004F08EF9002004F08BF9B32004F09AF945
:102E2000002004F085F9002004F082F9002004F06D
:102E30007FF9002004F07CF9002004F079F90020EB
:102E400004F076F9002004F073F9002004F070F922
:102E5000002004F06DF9002004F06AF9002004F06D
:102E600067F9002004F064F9002004F061F9002003
:102E700004F05EF9002004F05BF9002004F058F93A
:102E8000002004F055F9002004F052F9002004F06D
:102E90004FF9002004F04CF9002004F049F900201B
:102EA00004F046F9002004F043F9002004F040F952
:102EB000B42004F04FF98B2004F03AF9002004F01C
:102EC00037F9962004F034F9002004F031F9A120FC
:102ED00004F02EF9002004F02BF9B52004F03AF9A3
:102EE000022004F025F9002004F022F9032004F068
:102EF0001FF9002004F01CF9042004F019F9002047
:102F000004F016F9B62004F025F9002004F010F9B9
:102F1000002004F00DF9B72004F01CF9002004F0A3
:102F200007F9002004F004F93F2004F001F9002023
:102F300004F0FEF85E2004F0FBF8002004F0F8F83E
:102F4000642004F0F5F8002004F0F2F88C2004F07E
:102F5000EFF8002004F0ECF8AC2004F0E9F80020D1
:102F600004F0E6F8DC2004F0E3F801E004020020BD
:102F7000002004F0DDF8702004F0DAF8002004F0FE
:102F8000D7F8902004F0D4F8002004F0D1F8EB201A
:102F900004F0CEF8002004F0CBF8DC2004F0C8F8F0
:102FA000002004F0C5F8B82004F0D4F8002004F0A4
:102FB000BFF8002004F0BCF8002004F0B9F80020AD
:102FC00004F0B6F8002004F0B3F8002004F0B0F8E4
:102FD000002004F0ADF8002004F0AAF8BA2004F0B4
:102FE000B9F8242004F0A4F8002004F0A1F800208F
:102FF00004F09EF8002004F09BF8C12004F0AAF829
:10300000202004F095F8002004F092F8542004F0F9
:103010008FF8002004F08CF8FF2004F089F80020DD
:1030200004F086F8C22004F095F80A2004F080F835
:10303000002004F07DF8042004F07AF8002004F069
:1030400077F8C32004F086F83C2004F071F80020E3
:1030500004F06EF83A2004F06BF8002004F068F8F1
:10306000392004F065F8002004F062F8372004F0FD
:103070005FF8002004F05CF83C2004F059F80020D0
:1030800004F056F8362004F053F8002004F050F80D
:10309000322004F04DF8002004F04AF82F2004F00C
:1030A00047F8002004F044F82C2004F041F80020F8
:1030B00004F03EF8292004F03BF8002004F038F832
:1030C000262004F035F8002004F032F8242004F023
:1030D0002FF8002004F02CF8242004F029F8002018
:1030E00004F026F8232004F023F8002004F020F850
:1030F0003C2004F01DF8002004F01AF8362004F0FB
:1031000017F8002004F014F8322004F011F8002021
:1031100004F00EF82F2004F00BF8002004F008F85B
:103120002C2004F005F8002004F002F8292003F018
:10313000FFFF002003F0FCFF262003F0F9FF002032
:1031400003F0F6FF242003F0F3FF002003F0F0FF6C
:10315000242003F0EDFF002003F0EAFF232003F01A
:10316000E7FF002003F0E4FFC42003F0F3FF622038
:1031700003F0DEFF002003F0DBFF052003F0D8FFA3
:10318000002003F0D5FF842003F0D2FF002003F0DD
:10319000CFFFF02003F0CCFF002003F0C9FF182080
:1031A00003F0C6FF002003F0C3FFA42003F0C0FF1C
:1031B000002003F0BDFF182003F0BAFF002003F049
:1031C000B7FF502003F0B4FF002003F0B1FF0C2044
:1031D00003F0AEFF002003F0ABFF172003F0A8FFC1
:1031E000002003F0A5FF952003F0A2FF002003F0CC
:1031F0009FFFF32003F09CFF002003F099FFE620DF
:1032000003F096FF002003F093FFC52003F0A2FF18
:10321000322003F08DFF002003F08AFF442003F0EA
:1032200087FF002003F084FF652003F081FF00206A
:1032300003F07EFF762003F07BFF002003F078FF91
:10324000882003F075FF002003F072FFC62003F012
:1032500081FF202003F06CFF002003F069FF17209E
:1032600003F066FF002003F063FF012003F060FF1E
:10327000002003F05DFFC72003F06CFF002003F087
:1032800057FF002003F054FF002003F051FF0020FF
:1032900003F04EFFC82003F05DFF002003F048FF5D
:1032A000002003F045FF002003F042FF002003F060
:1032B0003FFFC92003F04EFF002003F039FF00203C
:1032C00003F036FF002003F033FF002003F030FF4F
:1032D000002003F02DFF002003F02AFF002003F060
:1032E00027FF002003F024FF002003F021FF00202F
:1032F00003F01EFF002003F01BFF002003F018FF67
:10330000002003F015FF002003F012FF002003F05F
:103310000FFF002003F00CFFE02003F01BFF16203E
:1033200003F006FF002003F003FF1C2003F000FF62
:10333000002003F0FDFE212003F0FAFE002003F040
:10334000F7FE362003F0F4FE002003F0F1FE4620E5
:1033500003F0EEFE002003F0EBFE522003F0E8FE47
:10336000002003F0E5FE642003F0E2FE002003F0FD
:10337000DFFE7A2003F0DCFE002003F0D9FE8B2074
:1033800003F0D6FE002003F0D3FE992003F0D0FE18
:10339000002003F0CDFEA82003F0CAFE002003F0B9
:1033A000C7FEB92003F0C4FE002003F0C1FEC42014
:1033B00003F0BEFE002003F0BBFECA2003F0B8FEFF
:1033C000002003F0B5FED22003F0B2FE002003F08F
:1033D000AFFED92003F0ACFE002003F0A9FEE020F0
:1033E00003F0A6FE002003F0A3FEF32003F0A0FEEE
:1033F000002003F09DFEE12003F0ACFE162003F058
:1034000097FE002003F094FE1C2003F091FE0020A4
:1034100003F08EFE222003F08BFE002003F088FED6
:10342000362003F085FE002003F082FE452003F0E5
:103430007FFE002003F07CFE522003F079FE002086
:1034400003F076FE642003F073FE002003F070FEAC
:103450007A2003F06DFE002003F06AFE8B2003F05B
:1034600067FE002003F064FE992003F061FE002057
:1034700003F05EFEA82003F05BFE002003F058FE80
:10348000B92003F055FE002003F052FEC42003F0E3
:103490004FFE002003F04CFECA2003F049FE00203E
:1034A00003F046FED22003F043FE002003F040FE6E
:1034B000D82003F03DFE002003F03AFEE02003F0A8
:1034C00037FE002003F034FEF32003F031FE00202D
:1034D00003F02EFEE22003F03DFE052003F028FE5F
:1034E000002003F025FE0B2003F022FE002003F055
:1034F0001FFE1B2003F01CFE002003F019FE3420E9
:1035000003F016FE002003F013FE442003F010FE2B
:10351000002003F00DFE4F2003F00AFE002003F010
:1035200007FE612003F004FE002003F001FE792075
:1035300003F0FEFD002003F0FBFD882003F0F8FD02
:10354000002003F0F5FD972003F0F2FD002003F0CA
:10355000EFFDA62003F0ECFD002003F0E9FDB7200D
:1035600003F0E6FD002003F0E3FDC22003F0E0FDE0
:10357000002003F0DDFDC72003F0DAFD002003F09A
:10358000D7FDD12003F0D4FD002003F0D1FDD620DB
:1035900003F0CEFD002003F0CBFDDD2003F0C8FDDD
:1035A000002003F0C5FDF32003F0C2FD002003F06E
:1035B000BFFDE32003F0CEFD052003F0B9FD0020A0
:1035C00003F0B6FD0A2003F0B3FD002003F0B0FDC8
:1035D0001C2003F0ADFD002003F0AAFD332003F012
:1035E000A7FD002003F0A4FD442003F0A1FD00206E
:1035F00003F09EFD502003F09BFD002003F098FD9A
:10360000622003F095FD002003F092FD782003F086
:103610008FFD002003F08CFD882003F089FD002041
:1036200003F086FD972003F083FD002003F080FD6A
:10363000A62003F07DFD002003F07AFDB72003F003
:1036400077FD002003F074FDC22003F071FD00201F
:1036500003F06EFDC72003F06BFD002003F068FD52
:10366000D12003F065FD002003F062FDD52003F0BA
:103670005FFD002003F05CFDDD2003F059FD00201C
:1036800003F056FDF32003F053FD002003F050FD3E
:10369000E42003F05FFD012003F04AFD002003F069
:1036A00047FD012003F044FD002003F041FD02200E
:1036B00003F03EFD002003F03BFD2A2003F038FD1F
:1036C000002003F035FD3C2003F032FD002003F024
:1036D0002FFD4B2003F02CFD002003F029FD5D2081
:1036E00003F026FD002003F023FD742003F020FDED
:1036F000002003F01DFD842003F01AFD002003F0DC
:1037000017FD932003F014FD002003F011FDA2200B
:1037100003F00EFD002003F00BFDB32003F008FDC5
:10372000002003F005FDBE2003F002FD002003F0A1
:10373000FFFCC42003F0FCFC002003F0F9FCCD20CA
:1037400003F0F6FC002003F0F3FCD32003F0F0FCC0
:10375000002003F0EDFCDD2003F0EAFC002003F084
:10376000E7FCF32003F0E4FC002003F0E1FCE5209B
:1037700003F0F0FC002003F0DBFC002003F0D8FC99
:10378000002003F0D5FC002003F0D2FC022003F05F
:10379000CFFC002003F0CCFC292003F0C9FC002062
:1037A00003F0C6FC3C2003F0C3FC002003F0C0FC87
:1037B0004B2003F0BDFC002003F0BAFC5D2003F0B9
:1037C000B7FC002003F0B4FC742003F0B1FC00202F
:1037D00003F0AEFC842003F0ABFC002003F0A8FC57
:1037E000932003F0A5FC002003F0A2FCA22003F02C
:1037F0009FFC002003F09CFCB32003F099FC002008
:1038000003F096FCBE2003F093FC002003F090FC34
:10381000C42003F08DFC002003F08AFCCD2003F0CF
:1038200087FC002003F084FCD32003F081FC0020FF
:1038300003F07EFCDC2003F07BFC002003F078FC2E
:10384000F32003F075FC002003F072FCE62003F087
:1038500081FC112003F06CFC002003F069FC342093
:1038600003F066FC002003F063FC562003F060FCCC
:10387000002003F05DFC762003F05AFC002003F0EA
:1038800057FC772003F054FC002003F051FC662025
:1038900003F04EFC002003F04BFC882003F048FCB2
:1038A000002003F045FC992003F042FC002003F0C7
:1038B0003FFCBB2003F03CFC002003F039FC9920C6
:1038C00003F036FC002003F033FC662003F030FCEC
:1038D000002003F02DFC552003F02AFC002003F00B
:1038E00027FC552003F024FC002003F021FC452098
:1038F00003F01EFC002003F01BFC432003F018FC27
:10390000002003F015FC442003F012FC002003F01B
:103910000FFCE72003F01EFC322003F009FC00201E
:1039200003F006FC552003F003FC002003F000FC2C
:10393000762003F0FDFB002003F0FAFB662003F085
:10394000F7FB002003F0F4FB672003F0F1FB0020FD
:1039500003F0EEFB672003F0EBFB002003F0E8FB35
:10396000872003F0E5FB002003F0E2FB992003F041
:10397000DFFB002003F0DCFBBB2003F0D9FB0020C1
:1039800003F0D6FB992003F0D3FB002003F0D0FB1B
:10399000772003F0CDFB002003F0CAFB442003F0A6
:1039A000C7FB002003F0C4FB562003F0C1FB00203E
:1039B00003F0BEFB232003F0BBFB002003F0B8FBA9
:1039C000332003F0B5FB002003F0B2FB452003F0E9
:1039D000AFFB002003F0ACFBE82003F0BBFB0020B2
:1039E00003F0A6FB002003F0A3FB992003F0A0FB4B
:1039F000002003F09DFB872003F09AFB002003F0DA
:103A000097FB882003F094FB002003F091FB7720C4
:103A100003F08EFB002003F08BFB662003F088FB95
:103A2000002003F085FB882003F082FB002003F0D8
:103A30007FFBAA2003F07CFB002003F079FBBB2076
:103A400003F076FB002003F073FB992003F070FB7A
:103A5000002003F06DFB662003F06AFB002003F0FA
:103A600067FB552003F064FB002003F061FB552049
:103A700003F05EFB002003F05BFB442003F058FBE7
:103A8000002003F055FB442003F052FB002003F01C
:103A90004FFB552003F04CFB002003F049FBE920CD
:103AA00003F058FBAA2003F043FB002003F040FB87
:103AB000002003F03DFB002003F03AFB002003F060
:103AC00049FBAA2003F034FBCF2003F043FB002086
:103AD00003F02EFB002003F02BFB002003F028FB5B
:103AE000002003F025FB002003F022FB002003F060
:103AF0001FFB002003F01CFB002003F019FB00203B
:103B000003F016FB002003F013FB002003F010FB72
:103B1000002003F00DFB002003F00AFB002003F05F
:103B200007FB002003F004FB002003F001FB002052
:103B300003F0FEFAF02003F00DFB002003F0F8FA8A
:103B4000502003F0F5FA002003F0F2FA002003F011
:103B5000EFFA002003F0ECFAF32003F0FBFA002068
:103B600003F0E6FAF92003F0F5FA062003F0E0FA94
:103B7000102003F0DDFA292003F0DAFA002003F028
:103B8000D7FA3A2003F0E6FA552003F0D1FA1120D3
:103B900003F0E0FA642004F0E9FE292003F0DAFAE9
:103BA000352003F0D7FA002003F0C2FA512003F0C9
:103BB000D1FAFF2003F0BCFA532003F0CBFA2C20FB
:103BC00003F0B6FA552003F0C5FA822003F0B0FAEC
:103BD0002C2003F0BFFA02F066BBFE48808845F255
:103BE000105188427ED155214FF4704003F0CCFA39
:103BF000AA214FF2010003F0C7FA52214FF202004E
:103C000003F0C2FA08214FF2030003F0BDFA0121CC
:103C10004FF2040003F0B8FA0D214FF4304003F0E6
:103C2000B3FA0D214BF2010003F0AEFA0D214BF275
:103C3000020003F0A9FA34214FF4364003F0A4FA4D
:103C400034214BF2016003F09FFA34214BF2026001
:103C500003F09AFA0D214FF4314003F095FA0D214B
:103C60004BF2011003F090FA0D214BF2021003F019
:103C70008BFA34214FF4374003F086FA34214BF2AB
:103C8000017003F081FA34214BF2027003F07CFAE8
:103C900000214FF4324003F077FA00214BF201206B
:103CA00003F072FA00214BF2022003F06DFA242196
:103CB0004FF4384003F068FA24214BF6010003F07A
:103CC00063FA24214BF6020003F05EFA01214FF45F
:103CD0003F4003F059FA0F214FF4334003F054FAF8
:103CE0000F2100E0FEE34BF2013003F04DFA0F210B
:103CF0004BF2023003F048FA34214FF4394003F01C
:103D000043FA34214BF6011003F03EFA34214BF60E
:103D1000021003F039FA08214FF4354003F034FA69
:103D200008214BF2015003F02FFA08214BF2025008
:103D300003F02AFA03214FF4424003F025FA24212C
:103D40004FF43A4003F020FA24214BF6012003F00F
:103D50001BFA24214BF6022003F016FA00214FF43F
:103D60003C4003F011FA78214BF6014003F00CFAC5
:103D700000214BF6024003F007FA00214FF43D40CA
:103D800003F002FA78214BF6015003F0FDF900210F
:103D90004BF6025003F0F8F900214FF43E4003F0D7
:103DA000F3F964214BF6016003F0EEF900214FF4C2
:103DB000514003F0E9F933214DF2011003F0E4F929
:103DC00000214DF2021003F0DFF934214DF203100F
:103DD00003F0DAF900214DF2041003F0D5F93A218D
:103DE0004DF2051003F0D0F900214DF2061003F05A
:103DF000CBF94A214DF2071003F0C6F900214DF22C
:103E0000081003F0C1F95C214DF2091003F0BCF970
:103E100000214DF20A1003F0B7F981214DF20B1089
:103E200003F0B2F900214DF20C1003F0ADF9A62118
:103E30004DF20D1003F0A8F900214DF20E1003F021
:103E4000A3F9E5214DF20F1003F09EF901214DF287
:103E5000101003F099F913214DF2111003F094F9A9
:103E600001214DF2121003F08FF954214DF213107D
:103E700003F08AF901214DF2141003F085F9822133
:103E80004DF2151003F080F901214DF2161003F0E8
:103E90007BF9CA214DF2171003F076F902214DF299
:103EA000181003F071F900214DF2191003F06CF9AC
:103EB00002214DF21A1003F067F901214DF21B1097
:103EC00003F062F902214DF21C1003F05DF9342178
:103ED0004DF21D1003F058F902214DF21E1003F0AF
:103EE00053F967214DF21F1003F04EF902214DF2F4
:103EF000201003F049F984214DF2211003F044F918
:103F000002214DF2221003F03FF9A4214DF22310BB
:103F100003F03AF902214DF2241003F035F9B721EC
:103F20004DF2251003F030F902214DF2261003F076
:103F30002BF9CF214DF2271003F026F902214DF283
:103F4000281003F021F9DE214DF2291003F01CF9AD
:103F500002214DF22A1003F017F9F2214DF22B1035
:103F600003F012F902214DF22C1003F00DF9FE219D
:103F70004DF22D1003F008F903214DF22E1003F03D
:103F800003F910214DF22F1003F0FEF803214DF23A
:103F9000301003F0F9F833214DF2311003F0F4F84A
:103FA00003214DF2321003F0EFF86D214DF2331082
:103FB00003F0EAF800214FF4524003F0E5F8332112
:103FC0004DF2012003F0E0F800214DF2022003F051
:103FD000DBF801E00402002034214DF2032003F05D
:103FE000D3F800214DF2042003F0CEF83A214DF22F
:103FF000052003F0C9F800214DF2062003F0C4F8B3
:104000004A214DF2072003F0BFF800214DF20820AD
:1040100003F0BAF85C214DF2092003F0B5F8002155
:104020004DF20A2003F0B0F881214DF20B2003F08D
:10403000ABF800214DF20C2003F0A6F8A6214DF2BA
:104040000D2003F0A1F800214DF20E2003F09CF8A2
:10405000E5214DF20F2003F097F801214DF21020D9
:1040600003F092F813214DF2112003F08DF8012195
:104070004DF2122003F088F854214DF2132003F082
:1040800083F801214DF2142003F07EF882214DF2D5
:10409000152003F079F801214DF2162003F074F891
:1040A000CA214DF2172003F06FF802214DF21820BB
:1040B00003F06AF800214DF2192003F065F802219F
:1040C0004DF21A2003F060F801214DF21B2003F09D
:1040D0005BF802214DF21C2003F056F834214DF21A
:1040E0001D2003F051F802214DF21E2003F04CF880
:1040F00067214DF21F2003F047F802214DF22020E6
:1041000003F042F884214DF2212003F03DF8022112
:104110004DF2222003F038F8A4214DF2232003F0C1
:1041200033F802214DF2242003F02EF8B7214DF28E
:10413000252003F029F802214DF2262003F024F86F
:10414000CF214DF2272003F01FF802214DF2282045
:1041500003F01AF8DE214DF2292003F015F80221B0
:104160004DF22A2003F010F8F2214DF22B2003F03B
:104170000BF802214DF22C2003F006F8FE214DF23F
:104180002D2003F001F803214DF22E2002F0FCFF58
:1041900010214DF22F2002F0F7FF03214DF23020C5
:1041A00002F0F2FF33214DF2312002F0EDFF032146
:1041B0004DF2322002F0E8FF6D214DF2332002F083
:1041C000E3FF00214FF4534002F0DEFF33214DF2B4
:1041D000013002F0D9FF00214DF2023002F0D4FF8D
:1041E00034214DF2033002F0CFFF00214DF20430B4
:1041F00002F0CAFF3A214DF2053002F0C5FF00215E
:104200004DF2063002F0C0FF4A214DF2073002F0B5
:10421000BBFF00214DF2083002F0B6FF5C214DF2E9
:10422000093002F0B1FF00214DF20A3002F0ACFF7C
:1042300081214DF20B3002F0A7FF00214DF20C302E
:1042400002F0A2FFA6214DF20D3002F09DFF0021E9
:104250004DF20E3002F098FFE5214DF20F3002F0E2
:1042600093FF01214DF2103002F08EFF13214DF229
:10427000113002F089FF01214DF2123002F084FF6B
:1042800054214DF2133002F07FFF01214DF2143022
:1042900002F07AFF82214DF2153002F075FF012104
:1042A0004DF2163002F070FFCA214DF2173002F0C5
:1042B0006BFF02214DF2183002F066FF00214DF233
:1042C000193002F061FF02214DF21A3002F05CFF5A
:1042D00001214DF21B3002F057FF02214DF21C303C
:1042E00002F052FF34214DF21D3002F04DFF022149
:1042F0004DF21E3002F048FF67214DF21F3002F0F0
:1043000043FF02214DF2203002F03EFF84214DF2A6
:10431000213002F039FF02214DF2223002F034FF49
:10432000A4214DF2233002F02FFF02214DF2243060
:1043300002F02AFFB7214DF2253002F025FF0221BD
:104340004DF2263002F020FFCF214DF2273002F04F
:104350001BFF02214DF2283002F016FFDE214DF244
:10436000293002F011FF02214DF22A3002F00CFF39
:10437000F2214DF22B3002F007FF02214DF22C30DA
:1043800002F002FFFE214DF22D3002F0FDFE03216E
:104390004DF22E3002F0F8FE10214DF22F3002F0D7
:1043A000F3FE03214DF2303002F0EEFE33214DF2E8
:1043B000313002F0E9FE03214DF2323002F0E4FE2A
:1043C0006D214DF2333002F0DFFE00214FF45440F6
:1043D00002F0DAFE33214DF2014002F0D5FE002159
:1043E0004DF2024002F0D0FE34214DF2034002F0C3
:1043F000CBFE00214DF2044002F0C6FE3A214DF200
:10440000054002F0C1FE00214DF2064002F0BCFE64
:104410004A214DF2074002F0B7FE00214DF208405C
:1044200002F0B2FE5C214DF2094002F0ADFE002127
:104430004DF20A4002F0A8FE81214DF20B4002F03D
:10444000A3FE00214DF20C4002F09EFEA6214DF28B
:104450000D4002F099FE00214DF20E4002F094FE54
:10446000E5214DF20F4002F08FFE01214DF2104088
:1044700002F08AFE13214DF2114002F085FE012167
:104480004DF2124002F080FE54214DF2134002F032
:104490007BFE01214DF2144002F076FE82214DF2A6
:1044A000154002F071FE01214DF2164002F06CFE43
:1044B000CA214DF2174002F067FE02214DF218406A
:1044C00002F062FE00214DF2194002F05DFE022171
:1044D0004DF21A4002F058FE01214DF21B4002F04D
:1044E00053FE00E004E302214DF21C4002F04CFEBA
:1044F00034214DF21D4002F047FE02214DF21E40D4
:1045000002F042FE67214DF21F4002F03DFE022103
:104510004DF2204002F038FE84214DF2214002F09D
:1045200033FE02214DF2224002F02EFEA4214DF274
:10453000234002F029FE02214DF2244002F024FE25
:10454000B7214DF2254002F01FFE02214DF2264018
:1045500002F01AFECF214DF2274002F015FE022193
:104560004DF2284002F010FEDE214DF2294002F00B
:104570000BFE02214DF22A4002F006FEF2214DF21E
:104580002B4002F001FE02214DF22C4002F0FCFD16
:10459000FE214DF22D4002F0F7FD03214DF22E4099
:1045A00002F0F2FD10214DF22F4002F0EDFD03214B
:1045B0004DF2304002F0E8FD33214DF2314002F07F
:1045C000E3FD03214DF2324002F0DEFD6D214DF29C
:1045D000334002F0D9FD00214FF4554002F0D4FDE4
:1045E00033214DF2015002F0CFFD00214DF2025077
:1045F00002F0CAFD34214DF2035002F0C5FD002146
:104600004DF2045002F0C0FD3A214DF2055002F087
:10461000BBFD00214DF2065002F0B6FD4A214DF2DD
:10462000075002F0B1FD00214DF2085002F0ACFD40
:104630005C214DF2095002F0A7FD00214DF20A5015
:1046400002F0A2FD81214DF20B5002F09DFD0021F0
:104650004DF20C5002F098FDA6214DF20D5002F0E3
:1046600093FD00214DF20E5002F08EFDE5214DF23A
:104670000F5002F089FD01214DF2105002F084FD2F
:1046800013214DF2115002F07FFD01214DF2125025
:1046900002F07AFD54214DF2135002F075FD012114
:1046A0004DF2145002F070FD82214DF2155002F0CF
:1046B0006BFD01214DF2165002F066FDCA214DF24C
:1046C000175002F061FD02214DF2185002F05CFD1E
:1046D00000214DF2195002F057FD02214DF21A50FF
:1046E00002F052FD01214DF21B5002F04DFD02215E
:1046F0004DF21C5002F048FD34214DF21D5002F0E5
:1047000043FD02214DF21E5002F03EFD67214DF2A5
:104710001F5002F039FD02214DF2205002F034FD0D
:1047200084214DF2215002F02FFD02214DF2225042
:1047300002F02AFDA4214DF2235002F025FD0221B2
:104740004DF2245002F020FDB7214DF2255002F029
:104750001BFD02214DF2265002F016FDCF214DF235
:10476000275002F011FD02214DF2285002F00CFDFD
:10477000DE214DF2295002F007FD02214DF22A50B0
:1047800002F002FDF2214DF22B5002F0FDFC02215D
:104790004DF22C5002F0F8FCFE214DF22D5002F0AB
:1047A000F3FC03214DF22E5002F0EEFC10214DF2ED
:1047B0002F5002F0E9FC03214DF2305002F0E4FCEE
:1047C00033214DF2315002F0DFFC03214DF2325023
:1047D00002F0DAFC6D214DF2335002F0D5FC0021DD
:1047E0004FF4564002F0D0FC33214DF2016002F04C
:1047F000CBFC00214DF2026002F0C6FC34214DF2E8
:10480000036002F0C1FC00214DF2046002F0BCFC28
:104810003A214DF2056002F0B7FC00214DF206602E
:1048200002F0B2FC4A214DF2076002F0ADFC00211B
:104830004DF2086002F0A8FC5C214DF2096002F024
:10484000A3FC00214DF20A6002F09EFC81214DF292
:104850000B6002F099FC00214DF20C6002F094FC18
:10486000A6214DF20D6002F08FFC00214DF20E608A
:1048700002F08AFCE5214DF20F6002F085FC012177
:104880004DF2106002F080FC13214DF2116002F035
:104890007BFC01214DF2126002F076FC54214DF2B6
:1048A000136002F071FC01214DF2146002F06CFC07
:1048B00082214DF2156002F067FC01214DF2166075
:1048C00002F062FCCA214DF2176002F05DFC022189
:1048D0004DF2186002F058FC00214DF2196002F010
:1048E00053FC02214DF21A6002F04EFC01214DF200
:1048F0001B6002F049FC02214DF21C6002F044FCF6
:1049000034214DF21D6002F03FFC02214DF21E6089
:1049100002F03AFC67214DF21F6002F035FC0221E3
:104920004DF2206002F030FC84214DF2216002F053
:104930002BFC02214DF2226002F026FCA4214DF254
:10494000236002F021FC02214DF2246002F01CFCE5
:10495000B7214DF2256002F017FC02214DF22660CE
:1049600002F012FCCF214DF2276002F00DFC022173
:104970004DF2286002F008FCDE214DF2296002F0C1
:1049800003FC02214DF22A6002F0FEFBF2214DF2FF
:104990002B6002F0F9FB02214DF22C6002F0F4FBD7
:1049A000FE214DF22D6002F0EFFB03214DF22E604F
:1049B00002F0EAFB10214DF22F6002F0E5FB03212B
:1049C0004DF2306002F0E0FB33214DF2316002F035
:1049D000DBFB03214DF2326002F0D6FB6D214DF27C
:1049E000336002F0D1FB55214FF4704002F0CCFB54
:1049F000AA214FF2010002F0C7FB52214FF2020040
:104A000002F0C2FB08214FF2030002F0BDFB0021BF
:104A10004FF2040002F0B8FBCC214FF4314002F019
:104A2000B3FB00214BF2011002F0AEFB05214FF465
:104A3000364002F0A9FB70214FF4374002F0A4FB8E
:104A400070214BF2017002F09FFB01214FF43840BE
:104A500002F09AFB03214BF6010002F095FB0321C3
:104A60004BF6020002F090FB03214BF6030002F02C
:104A70008BFB02214FF43C4002F086FB00214BF6F9
:104A8000014002F081FB00214BF6024002F07CFB6A
:104A9000D0214FF4494002F077FB02214CF601107F
:104AA00002F072FB50214CF6021002F06DFB502117
:104AB0004CF6031002F068FB50214CF6041002F093
:104AC00063FB00214FF4545002F05EFB55214FF47C
:104AD000685002F059FB4FF4885002F03BFB7820FD
:104AE00003F06AFF4FF4245002F034FB01F0DBBB0B
:104AF000FE48808849F2253188427DD147F6F00191
:104B0000E52002F041FB4FF48071012002F03CFBF4
:104B10004FF4E061022002F037FB41F23001032044
:104B200002F032FB0021042002F02EFB40F20221B1
:104B3000082002F029FB0021092002F025FB0021BA
:104B40000A2002F021FB00210C2002F01DFB0021B5
:104B50000D2002F019FB00210F2002F015FB0021AF
:104B6000102002F011FB0721112002F00DFB0021A3
:104B7000122002F009FB0021132002F005FB0021A6
:104B8000072002F001FB41F29061102002F0FCFAD4
:104B900040F22721112002F0F7FA9D21122002F0A5
:104BA000F3FA4FF4C851132002F0EEFA2521292020
:104BB00002F0EAFA0D212B2002F0E6FA072130205C
:104BC00002F0E2FA40F20331312002F0DDFA032173
:104BD000322002F0D9FA40F20621352002F0D4FA50
:104BE0000821362002F0D0FA40F20641372002F0C8
:104BF000CBFA4FF4417100E058E0382002F0C4FADB
:104C00000721392002F0C0FA40F202613C2002F094
:104C1000BBFA08213D2002F0B7FA0021502002F033
:104C2000B3FAEF21512002F0AFFA0021522002F036
:104C3000ABFA40F23F11532002F0A6FA4FF427419D
:104C4000602002F0A1FA0121612002F09DFA00210A
:104C50006A2002F099FA0021802002F095FA0021E2
:104C6000812002F091FA0021822002F08DFA0021C9
:104C7000832002F089FA0021842002F085FA0021C5
:104C8000852002F081FA1021902002F07DFA4FF485
:104C9000C061922002F078FA40F23311072002F04E
:104CA00073FA2221002002F06FFA1FE78F488088F4
:104CB00049F2283188427DD141F28F01EC2002F087
:104CC00063FA41F23421EF2002F05EFA4FF4807172
:104CD000012002F059FA4FF4E061022002F054FA88
:104CE00041F23001032002F04FFA0021042002F0CB
:104CF0004BFA40F20221082002F046FA0021092076
:104D000002F042FA00210A2002F03EFA01210C20B2
:104D100002F03AFA00210D2002F036FA00210F20AD
:104D200002F032FA0021102002F02EFA07211120A1
:104D300002F02AFA0021122002F026FA00211320A4
:104D400002F022FA0121072002F01EFA322003F0BD
:104D50000DFE41F29041102002F016FA40F2272198
:104D6000112002F011FA322003F000FE8A211220F5
:104D700002F00AFA322003F0F9FD4FF4D05113206B
:104D800002F002FA0621292002F0FEF90D212B2063
:104D900002F0FAF9322003F0E9FD0021202002F0B0
:104DA000F3F90021212002F0EFF9322003F0DEFDBB
:104DB000002100E075E0302002F0E6F940F20461E5
:104DC000312002F0E1F940F20531322002F0DCF945
:104DD0000021352002F0D8F940F60941362002F0D2
:104DE000D3F94FF40171372002F0CEF940F20131CE
:104DF000382002F0C9F940F20771392002F0C4F9F5
:104E000000213C2002F0C0F940F60A213D2002F0CA
:104E1000BBF9322003F0AAFD0021502002F0B4F9C2
:104E2000EF21512002F0B0F90021522002F0ACF93C
:104E300040F23F11532002F0A7F94FF427416020C0
:104E400002F0A2F90121612002F09EF900216A20FE
:104E500002F09AF90021802002F096F900218120C9
:104E600002F092F90021822002F08EF900218320C5
:104E700002F08AF90021842002F086F900218520C1
:104E800002F082F91021902002F07EF94FF4C06107
:104E9000922002F079F940F23311072002F074F900
:104EA00024E61248808849F2203188427ED10021D0
:104EB000084602F069F94FF48071012002F064F9AC
:104EC0004FF4E061022002F05FF941F2300103206B
:104ED00002F05AF90021042002F056F940F20221B2
:104EE000082002F051F90021092001E0040200200D
:104EF00002F04AF900210A2002F046F901210C20B3
:104F000002F042F900210D2002F03EF900210F20AD
:104F100002F03AF9322003F029FD40F20111072096
:104F200002F032F9322003F021FD4FF486511020B7
:104F300002F02AF90721112002F026F94FF48871B6
:104F4000122002F021F94FF43061132002F01CF915
:104F50000021292002F018F944F210012B2002F060
:104F600013F90021502002F00FF9EF21512002F037
:104F70000BF90021522002F007F940F23F115320B3
:104F800002F002F94FF41C51602002F0FDF80121FB
:104F9000612002F0F9F800216A2002F0F5F8002102
:104FA000802002F0F1F80021812000E030E002F0E2
:104FB000EBF80021822002F0E7F80021832002F0C4
:104FC000E3F80021842002F0DFF80021852002F0C0
:104FD000DBF81021902002F0D7F80021922002F097
:104FE000D3F80121932002F0CFF84FF48871952077
:104FF00002F0CAF80021972002F0C6F8002198209C
:1050000002F0C2F840F27311072002F0BDF86DE51E
:10501000FE48808849F2313188427DD141F2140145
:10502000E72002F0B1F84FF48071012002F0ACF8F3
:105030004FF40071022002F0A7F841F2380103207A
:1050400002F0A2F840F20221082002F09DF80021AF
:10505000092002F099F800210A2002F095F80021B9
:105060000C2002F091F800210D2002F08DF80021B3
:105070000F2002F089F80021102002F085F80721A6
:10508000112002F081F80021122002F07DF80021A9
:10509000132002F079F8C82003F068FC41F2906117
:1050A000102002F071F840F22721112002F06CF874
:1050B000322003F05BFC0C21122002F065F8322054
:1050C00003F054FC4FF40061132002F05DF811214D
:1050D000292002F059F80B212B2002F055F832203C
:1050E00003F044FC0021202002F04EF840F23F1172
:1050F000212002F049F80021302002F045F84FF459
:105100008371312002F040F80021322002F03CF897
:105110004FF40171352000E064E002F035F841F20F
:105120000A61362002F030F840F20771372002F0B1
:105130002BF84FF48371382002F026F840F2077103
:10514000392002F021F840F202413C2002F01CF824
:1051500040F60F413D2002F017F80021502002F0E8
:1051600013F8EF21512002F00FF80021522002F035
:105170000BF840F23F11532002F006F84FF41C5197
:10518000602002F001F80121612001F0FDFF002103
:105190006A2001F0F9FF0021802001F0F5FF0021D5
:1051A000812001F0F1FF0021822001F0EDFF0021BC
:1051B000832001F0E9FF0021842001F0E5FF0021B8
:1051C000852001F0E1FF1021902001F0DDFF4FF478
:1051D000C061922001F0D8FF40F23311072001F0A6
:1051E000D3FF83E48948808845F2084188427DD115
:1051F0004FF48071012001F0C7FF4FF4E0610220FD
:1052000001F0C2FF41F23001032001F0BDFF002197
:10521000042001F0B9FF40F20721082001F0B4FF9B
:105220000021092001F0B0FF00210A2001F0ACFFAD
:1052300000210C2001F0A8FF00210D2001F0A4FFA7
:1052400000210F2001F0A0FF142003F08FFB41F29A
:10525000B061102001F098FF0121112001F094FFAE
:105260000121172001F090FF4FF49C71122001F0F2
:105270008BFF4FF40061132001F086FF09212920E4
:1052800001F082FF09212A2001F07EFF0021A420E5
:1052900001F07AFF0021502001F076FFEF2151202C
:1052A00001F072FF0021522001F06EFF40F23F1129
:1052B000532001F069FF4FF41C51602001F064FF9E
:1052C0000121612001F060FF00216A2001F05CFFF4
:1052D0000021802001F058FF0021812001F054FFBF
:1052E0000021822001F050FF002100E024E0832013
:1052F00001F04AFF0021842001F046FF00218520B3
:1053000001F042FF1321902001F03EFF0021922086
:1053100001F03AFF0321932001F036FF4FF488712A
:10532000952001F031FF40F27311072001F02CFFAE
:10533000322003F01BFBB8E43448808841F2055169
:1053400088427DD10021072001F01EFF322003F0AA
:105350000DFB4FF48E71122001F016FF0121A420E5
:1053600001F012FF0F21082001F00EFF08210A2092
:1053700001F00AFF08210D2001F006FF40F207713D
:10538000302001F001FF0721312001F0FDFE40F245
:105390000361322001F0F8FE4FF4E061332001F0A8
:1053A000F3FE40F20221342001F0EEFE022135200E
:1053B00001F0EAFE41F60F71362001F0E5FE40F201
:1053C0000771372001F0E0FE0021382001F0DCFEFB
:1053D0000021392001F0D8FE40F207713A2001F097
:1053E000D3FE00213B2001F0CFFE07213C2001F03D
:1053F000CBFE00213D2001F0C7FE322003F0B6FABB
:105400000121072001F0C0FE012101E0040200207B
:10541000172001F0B9FE322003F0A8FA4FF4BD5175
:10542000102001F0B1FE40F21721112001F0ACFE76
:105430004FF48F71122001F0A7FE4FF4706100E06D
:1054400098E0132001F0A0FE00212A2001F09CFE2C
:105450000A21292001F098FE4FF49F71122001F0DB
:1054600093FE0021502001F08FFEEF21512001F02A
:105470008BFE0021522001F087FE40F23F115320A5
:1054800001F082FE4FF41C51602001F07DFE0121ED
:10549000612001F079FE00216A2001F075FE0021F3
:1054A000802001F071FE0021812001F06DFE0021BD
:1054B000822001F069FE0021832001F065FE0021B9
:1054C000842001F061FE0021852001F05DFE1321A2
:1054D000902001F059FE4FF44071922001F054FEEB
:1054E0000521932001F050FE0021952001F04CFE93
:1054F0000021972001F048FE0021982001F044FE91
:105500004FF48071012001F03FFE4FF4E061022072
:1055100001F03AFE41F23801032001F035FE00218E
:10552000042001F031FE00210C2001F02DFE0021AD
:105530000F2001F029FE0021202001F025FE00218E
:10554000212001F021FE2121072001F01DFE142061
:1055500003F00CFA6121072001F016FE142003F07D
:1055600005FA40F27311072001F00EFE142003F03B
:10557000FDF995E4FE4880884BF2055188427CD1C4
:105580000021084601F000FE0021084601F0FCFD64
:105590000021084601F0F8FD0021084601F0F4FD65
:1055A0000121A42001F0F0FD142003F0DFF94FF4F5
:1055B0001C51602001F0E8FD40F20221082001F0BA
:1055C000E3FD4FF40571302001F0DEFD43F215716B
:1055D000312001F0D9FD40F20461322001F0D4FD08
:1055E00040F61661332001F0CFFD42F21121342044
:1055F00001F0CAFD4FF4A851352001F0C5FD48F275
:105600000751362001F0C0FD41F20741372001F07B
:10561000BBFD41F20341382001F0B6FD20213920C5
:1056200001F0B2FD1A21902001F0AEFD0021102002
:1056300001F0AAFD0721112001F0A6FD0021122092
:1056400001F0A2FD0021132001F09EFD142003F0C3
:105650008DF94FF4E661102001F096FD40F237110C
:10566000112001F091FD142003F080F94FF4DC715A
:10567000122001F089FD142000E085E003F076F9A6
:105680004FF47061132001F07FFD80212A2001F08A
:105690007BFD4821292001F077FD142003F066F9F5
:1056A0004FF48071012001F06FFD4FF4E0610220A2
:1056B00001F06AFD41F23801032001F065FD40F27E
:1056C0000221082001F060FD00210A2001F05CFDAC
:1056D00000210C2001F058FD00210D2001F054FDA7
:1056E00030210E2001F050FD0021502001F04CFD32
:1056F000EF21512001F048FD0021522001F044FD2E
:1057000040F23F11532001F03FFD4FF41C51602047
:1057100001F03AFD0121612001F036FD00216A20EF
:1057200001F032FD1121902001F02EFD4FF4C061F7
:10573000922001F029FD40F20241932001F024FD66
:105740000221942001F020FD142003F00FF9012123
:10575000072001F019FD142003F008F9612107204A
:1057600001F012FD40F27311072001F00DFD002140
:10577000202001F009FD0021212001F005FD22215A
:10578000002001F001FD42E4794880884CF2055187
:1057900088427CD10021084601F0F6FC0021084631
:1057A00001F0F2FC142003F0E1F80021084601F0BA
:1057B000EBFC0021084601F0E7FC0021084601F05F
:1057C000E3FC0021084601F0DFFC0121A42001F0E8
:1057D000DBFC142003F0CAF84FF41C51602001F0E8
:1057E000D3FC40F60601082001F0CEFC40F2037124
:1057F000302001F0C9FC0121312001F0C5FC042159
:10580000322001F0C1FC4FF48171332001F0BCFC67
:105810004FF44071342001F0B7FC40F20311352001
:1058200001F0B2FC1F21362001F0AEFC40F2037102
:10583000372001F0A9FC0121382001F0A5FC04214A
:10584000392001F0A1FC1521902001F09DFC4FF4BE
:105850008261102001F098FC40F24721112001F0F4
:1058600093FC4FF4DE71122001F08EFC4FF4606166
:10587000132001F089FC782003F078F84FF4807150
:10588000012001F081FC4FF40071022000E052E0A1
:1058900001F07AFC41F23001032001F075FC08218F
:1058A0000A2001F071FC00210C2001F06DFC202188
:1058B0000E2001F069FC00210F2001F065FC0021A1
:1058C000202001F061FC0021212001F05DFC3D2140
:1058D0002A2001F059FC142003F048F82D2129203A
:1058E00001F052FC0021502001F04EFC4DF2EF017E
:1058F000512001F049FC0021522001F045FC40F20A
:105900003F11532001F040FC0021612001F03CFCDC
:1059100000216A2001F038FC4FF44071922001F020
:1059200033FC0521932001F02FFC4FF480710720F8
:1059300001F02AFC55E40E48808848F68911884217
:105940007ED10121002001F01FFC4AF6A4010320B2
:1059500001F01AFC00210C2001F016FC40F60C01AD
:105960000D2001F011FC4FF42C510E2002E000003C
:105970000402002001F008FCB0211E2001F004FC0C
:1059800042F63F31012001F0FFFB4FF4C0610220DD
:1059900001F0FAFB0021102001F0F6FB46F278013D
:1059A000112001F0F1FB0021052001F0EDFB0021A9
:1059B000062001F0E9FB4EF61C71162001F0E4FB15
:1059C0000321172001F0E0FB40F23321072001F012
:1059D000DBFB00210B2001F0D7FB00210F2001F0A1
:1059E000D3FB0021412001F0CFFB0021422001F038
:1059F000CBFB0021482001F0C7FB40F23F114920BA
:105A000001F0C2FB00214A2001F0BEFB00214B2027
:105A100001F0BAFB4FF46F41442001F0B5FB0021C7
:105A2000452001F0B1FB40F23F11462001F0ACFBF4
:105A300040F20771302001F0A7FB4FF4017100E044
:105A400040E0312001F0A0FB4FF40171322001F061
:105A50009BFB40F20251332001F096FB40F20751CC
:105A6000342001F091FB4FF40171352001F08CFBE3
:105A70004FF40171362001F087FB40F202513720CC
:105A800001F082FB40F202313A2001F07DFB40F24E
:105A900002313B2001F078FB0021232001F074FB50
:105AA0000021242001F070FB4FF40041252001F07B
:105AB0006BFB00214F2001F067FB00214E2001F01D
:105AC00063FBF0E3FE48808844F2315188427DD187
:105AD0000121002001F058FB0A2002F047FF41F2AB
